:020000040800F2
:10000000600700208901000881110008E10500084F
:100010007D110008450300083B190008000000009E
:10002000000000000000000000000000ED130008C8
:10003000490300080000000009120008011500082B
:10004000A3010008A3010008A3010008A301000800
:10005000A3010008A3010008A3010008A3010008F0
:10006000A3010008A3010008A3010008A3010008E0
:10007000A3010008A3010008A3010008A3010008D0
:10008000A3010008A3010008A3010008A3010008C0
:10009000A3010008A3010008A3010008A3010008B0
:1000A000A3010008A3010008A3010008A3010008A0
:1000B000A301000865150008A3010008A3010008BA
:1000C000A3010008A3010008A3010008A301000880
:1000D000A301000855180008A3010008A3010008A7
:1000E000A3010008A3010008A301000800F002F822
:1000F00000F03AF80AA090E8000C82448344AAF188
:100100000107DA4501D100F02FF8AFF2090EBAE885
:100110000F0013F0010F18BFFB1A43F0010318473B
:10012000F867000018680000103A24BF78C878C14A
:10013000FAD8520724BF30C830C144BF04680C60ED
:10014000704700000023002400250026103A28BF35
:1001500078C1FBD8520728BF30C148BF0B60704739
:100160001FB51FBD10B510BD00F0BEF81146FFF75A
:10017000F7FF01F0D7FF00F0DCF803B4FFF7F2FF60
:1001800003BC01F011FF00000948804709480047FF
:10019000FEE7FEE7FEE7FEE7FEE7FEE7FEE7FEE737
:1001A000FEE7FEE704480549054A064B7047000094
:1001B00005150008ED000008600100206007002020
:1001C0006003002060030020704753EA020C00F037
:1001D00069802DE9F04B4FF00006002B1FBFB3FAEA
:1001E00083F503FA05F424FA05F65E4012BF1643C0
:1001F000B2FA82F502FA05F4C5F120051EBF22FA13
:1002000005FC44EA0C04203556EA044C4FEA144439
:1002100018BF641C4FF000084FF00009904271EBCA
:10022000030C39D3002919BFB1FA81F701FA07F697
:10023000B0FA80F700FA07F6C7F120071EBF20FAD0
:1002400007FC46EA0C062037B6FBF4FCA7EB0507D3
:10025000103F07F01F0BCBF120060CFA0BFB2CFA1A
:1002600006F644BFB3460026202FA4BF5E464FF0DB
:10027000000B5BEA060C08BF4FF0010B19EB0B09F2
:10028000ABFB027C48EB0608C01B06FB02CC0BFB59
:1002900003CC71EB0C01C1E70B46024641464846D0
:1002A000BDE8F08B13B54FF000004FF00001AFF345
:1002B0000080BDE81C40704770477047704770472A
:1002C00010B500F009F8006810BD10B5044600F044
:1002D00003F8046010BD000000487047FC000020D7
:1002E00000487047FC0000207546FFF7F9FFAE4656
:1002F00005006946534620F00700854618B020B532
:10030000FFF750FFBDE820404FF000064FF0000718
:100310004FF000084FF0000B21F00701AC46ACE8AD
:10032000C009ACE8C009ACE8C009ACE8C0098D461A
:10033000704710B50446AFF300802046BDE810407A
:10034000FFF71BBF00BFFEE770472DE9F0470646E9
:100350000F4690469A46002445464FEA4800C0F1B1
:1003600003094AE03A1B91B2721B90B2524600F068
:10037000B0F93A1B91B2721990B2524600F0A9F945
:100380007A1991B2321B90B2524600F0A2F97A1B50
:1003900091B2321B90B2524600F09BF93A1991B2D9
:1003A000721990B2524600F094F97A1B91B2321948
:1003B00090B2524600F08DF97A1991B2321990B28A
:1003C000524600F086F93A1991B2721B90B2524629
:1003D00000F07FF9B9F1000F05DA042000FB04906A
:1003E00000F1060907E0601B042101FB009000F109
:1003F0000A09681E85B2601C84B2AC42B2DBAC4212
:1004000037D13A1B91B2721B90B2524600F061F99B
:100410003A1B91B2721990B2524600F05AF97A1909
:1004200091B2321B90B2524600F053F97A1B91B24E
:10043000321B90B2524600F04CF93A1991B272193F
:1004400090B2524600F045F97A1B91B2321990B23F
:10045000524600F03EF97A1991B2321990B25246E2
:1004600000F037F93A1991B2721B90B2524600F07F
:1004700030F9BDE8F0872DE9F0410246002500265D
:10048000002000230024002791F803C00CF00F0582
:1004900091F803C00CF0100CBCF1000F03D091F8E0
:1004A00002C04CEA050591F800C0BCF1000F31D044
:1004B000146800202BE04FF0010C0CFA00F3B1F8A7
:1004C00000C00CEA03069E4220D183004FF00F0CBF
:1004D0000CFA03F7BC4305FA03FC4CEA040491F858
:1004E00003C0BCF1280F06D14FF0010C0CFA00FC40
:1004F000C2F814C00AE091F803C0BCF1480F05D15E
:100500004FF0010C0CFA00FCC2F810C0401C082887
:10051000D1D31460B1F800C0BCF1FF0F34DD5468D2
:1005200000202EE000F1080C4FF0010808FA0CF34F
:10053000B1F800C00CEA03069E4221D183004FF0BF
:100540000F0C0CFA03F7BC4305FA03FC4CEA040455
:1005500091F803C0BCF1280F05D100F1080C08FA8E
:100560000CF8C2F8148091F803C0BCF1480F07D111
:1005700000F1080C4FF0010808FA0CF8C2F81080DE
:10058000401C0828CED35460BDE8F081024600200C
:1005900093680B400BB1012000E0002070474161DF
:1005A0007047016170470AB1016100E04161704725
:1005B00008B50121082000F039FE10208DF8030055
:1005C0000120ADF8000003208DF8020069460348C1
:1005D000FFF751FF0F2001F07FFD08BD000C014027
:1005E00000BFFEE72DE9F04107460C4615461E46C2
:1005F0002A2000F089FD384600F077FD284600F0FB
:1006000074FD2B2000F080FD04F1220188B200F07F
:100610006CFD06F1220188B200F067FD2C2000F08D
:1006200073FDBDE8F0812DE9FF4F85B081468A4614
:100630000020039083460798A0EB09050898A0EBDB
:100640000A06CDF80890CDF804A0002D01DD0127A1
:1006500005E00DB9002702E04FF0FF376D42002E94
:1006600002DD4FF0010806E016B94FF0000802E085
:100670004FF0FF387642B54201DD2C4600E03446AB
:10068000002004901EE0019A91B2029A90B2129A50
:1006900000F01FF8039828440390B3440398A04245
:1006A00005DD0398001B0390029838440290A3458F
:1006B00004DDABEB040B0198404401900498401C0E
:1006C00080B20490611C04988842DCDB09B0BDE86C
:1006D000F08F70B504460D4616462B462246294635
:1006E0002046FFF77FFF304600F0FFFC70BD2DE98C
:1006F000F84305460E4617469846089C33463A4648
:10070000314628460094FFF78EFF43462A4631467D
:1007100028460094FFF787FF43463A46414628465D
:100720000094FFF780FF43463A463146384600942E
:10073000FFF779FFBDE8F8832DE9F04706460F463D
:1007400014461D46DDF820A0681E83B2601E82B2EA
:1007500039463046FFF746FFB8460EE0B14606E0A0
:10076000504600F0C2FC09F101001FFA80F9A145D2
:10077000F6DB08F101001FFA80F8A845EEDBBDE8C2
:10078000F087000008B50121042000F04FFD3F2054
:10079000ADF8000010208DF8030003208DF8020052
:1007A00069460448FFF767FE3F210248FFF7F9FE5C
:1007B00008BD00000008014010B5FFF7E3FF042169
:1007C0006A48FFF7ECFE1E2001F060FC0421674838
:1007D000FFF7E7FE642001F059FC20216348FFF792
:1007E000E0FE642001F052FC112000F08DFC362068
:1007F00000F08AFC702000F081FC3A2000F084FCBC
:10080000052000F07BFCB22000F07EFC0C2000F004
:1008100075FC0C2000F072FC002000F06FFC33200F
:1008200000F06CFC332000F069FCB72000F06CFC99
:10083000352000F063FCBB2000F066FC352000F0A2
:100840005DFCC02000F060FC2C2000F057FCC220B2
:1008500000F05AFC012000F051FCC32000F054FCD1
:10086000132000F04BFCC42000F04EFC202000F0D0
:1008700045FCC62000F048FC0F2000F03FFCD020D3
:1008800000F042FCA42000F039FCA12000F036FC6E
:10089000D62000F039FCA12000F030FCE02000F070
:1008A00033FCF02000F02AFC002000F027FC04209C
:1008B00000F024FC042000F021FC042000F01EFCC9
:1008C000052000F01BFC292000F018FC332000F06C
:1008D00015FC3E2000F012FC382000F00FFC122026
:1008E00000F00CFC122000F009FC282000F006FCAF
:1008F000302000F003FCE12000F006FCF02000F0C6
:10090000FDFB072000F0FAFB0A2000F0F7FB0D20AA
:1009100000F0F4FB0B2000F0F1FB072000F0EEFBF1
:10092000282000F0EBFB332000F0E8FB3E2000F035
:10093000E5FB362000F0E2FB142000F0DFFB142082
:1009400000F0DCFB292000F0D9FB322000F0D6FBC0
:10095000212000F0D9FB112000F0D6FB782001F017
:1009600095FB292000F0D0FB10BD000000080140DD
:100970002DE9FF5F80468A4617469B460F9D002063
:100980000290CDF80080284605EBD071C1F34704F2
:100990002046E21704EB5272D2102146E31704EB13
:1009A0005373DB10A4EBC3030BB1012300E000235E
:1009B0001A446A4392B20192A7F12000C7B20AEB2F
:1009C0000500401E83B208EB0400401E82B251466F
:1009D0004046FFF707FE002669E00C2D07D107EB24
:1009E0004700354901EB8000805D03901BE0102D2E
:1009F00005D1324800EB0710805D039013E0182DFD
:100A000007D107EB47002E4901EB0010805D0390F2
:100A100009E0202D05D12B4800EB8710805D039065
:100A200001E0BDE8FF9F4FF000093AE01098C8B917
:100A3000012000FA09F00399084018B1584600F067
:100A400054FB02E00E9800F050FB0298401CC0B22C
:100A50000290029890FBF4F104FB1100E8B9002029
:100A6000029021E0012000FA09F00399084020B12A
:100A70005A4651464046FFF72CFE08F101001FFA86
:100A800080F80098A8EB0000A04206D1DDF80080B5
:100A90000AF101001FFA80FA06E009F1010000F0F6
:100AA000FF09B9F1080FC1DB00BF701C86B20198C5
:100AB000864292DB00BFB4E7DC2E0008503300080A
:100AC00040390008104B00082DE9FE4F804689464A
:100AD00017469A46DDE90D460C9D36E00C2C09D1EF
:100AE00053463A4649464046CDE90146009500F056
:100AF00031F825E0102C09D153463A464946404684
:100B0000CDE90146009500F0C9F819E0182C09D18B
:100B100053463A4649464046CDE90146009500F025
:100B200059F90DE0202C09D153463A464946404632
:100B3000CDE90146009500F0F1F901E0BDE8FE8F36
:100B4000BF1C08EB04001FFA80F838780028C5D1D4
:100B500000BFF3E72DE9FF5F0646894692469B46B4
:100B60000F9C0020039000962046E21704EB52727F
:100B7000D2102146E31704EB5373DB10A4EBC3033D
:100B80000BB1012300E000231A44624392B20192A8
:100B900005200290002579E005EB850000EBC500FB
:100BA0003D4911F810009AF8001088426BD105EB0E
:100BB000850000EBC500384901EB400040789AF809
:100BC000011088425FD109EB0400401E83B2301946
:100BD000401E82B249463046FFF704FD00274FE031
:100BE0004FF0000846E0109808BB05EB850000EBCD
:100BF000C500294901EB4000801CC05D012101FABC
:100C000008F1084018B1584600F06FFA02E00E985B
:100C100000F06BFA0398401CC0B20390039890FB5D
:100C2000F4F104FB110008BB0020039025E005EB64
:100C3000850000EBC500184901EB4000801CC05D39
:100C4000012101FA08F1084020B15A4649463046D0
:100C5000FFF73FFD701C86B20098301AA04205D104
:100C6000009E09F101001FFA80F906E008F1010079
:100C700000F0FF08B8F1080FB5DB00BF781CC7B261
:100C800001988742ACDB00BF681C85B202988542A0
:100C900082DBBDE8FF9F0000D06200082DE9FF5F06
:100CA0000646894692469B460F9C0020039000967C
:100CB0002046E21704EB5272D2102146E31704EBF0
:100CC0005373DB10A4EBC3030BB1012300E000233B
:100CD0001A44624392B2019205200290002571E00D
:100CE00005EB05103A4911F810009AF800108842F7
:100CF00065D105EB0510364901EB400040789AF8C4
:100D0000011088425BD109EB0400401E83B2301908
:100D1000401E82B249463046FFF764FC00274BE094
:100D20004FF0000842E01098F8B905EB051028498B
:100D300001EB4000801CC05D012101FA08F1084070
:100D400018B1584600F0D1F902E00E9800F0CDF944
:100D50000398401CC0B20390039890FBF4F104FB8D
:100D60001100F8B90020039023E005EB05101849A5
:100D700001EB4000801CC05D012101FA08F1084030
:100D800020B15A4649463046FFF7A3FC701C86B294
:100D90000098301AA04205D1009E09F101001FFA07
:100DA00080F906E008F1010000F0FF08B8F1080F33
:100DB000B9DB00BF781CC7B201988742B0DB00BF27
:100DC000681C85B2029885428ADBBDE8FF9F00005F
:100DD000526300082DE9FF5F0646894692469B460E
:100DE0000F9C0020039000962046E21704EB5272FD
:100DF000D2102146E31704EB5373DB10A4EBC303BB
:100E00000BB1012300E000231A44624392B2019225
:100E100005200290002579E005EB850000EB4510E8
:100E20003D4911F810009AF8001088426BD105EB8B
:100E3000850000EB4510384901EB400040789AF8F6
:100E4000011088425FD109EB0400401E83B23019C3
:100E5000401E82B249463046FFF7C4FB00274FE0F0
:100E60004FF0000846E0109808BB05EB850000EB4A
:100E70004510294901EB4000801CC05D012101FAA9
:100E800008F1084018B1584600F02FF902E00E981A
:100E900000F02BF90398401CC0B20390039890FB1C
:100EA000F4F104FB110008BB0020039025E005EBE2
:100EB000850000EB4510184901EB4000801CC05D27
:100EC000012101FA08F1084020B15A46494630464E
:100ED000FFF7FFFB701C86B20098301AA04205D1C4
:100EE000009E09F101001FFA80F906E008F10100F7
:100EF00000F0FF08B8F1080FB5DB00BF781CC7B2DF
:100F000001988742ACDB00BF681C85B2029885421D
:100F100082DBBDE8FF9F0000FC6300082DE9FF5F56
:100F20000646894692469B460F9C002003900096F9
:100F30002046E21704EB5272D2102146E31704EB6D
:100F40005373DB10A4EBC3030BB1012300E00023B8
:100F50001A44624392B2019205200290002571E08A
:100F600005EB85103A4911F810009AF800108842F4
:100F700065D105EB8510364901EB400040789AF8C1
:100F8000011088425BD109EB0400401E83B2301986
:100F9000401E82B249463046FFF724FB00274BE053
:100FA0004FF0000842E01098F8B905EB8510284989
:100FB00001EB4000801CC05D012101FA08F10840EE
:100FC00018B1584600F091F802E00E9800F08DF844
:100FD0000398401CC0B20390039890FBF4F104FB0B
:100FE0001100F8B90020039023E005EB85101849A3
:100FF00001EB4000801CC05D012101FA08F10840AE
:1010000020B15A4649463046FFF763FB701C86B252
:101010000098301AA04205D1009E09F101001FFA84
:1010200080F906E008F1010000F0FF08B8F1080FB0
:10103000B9DB00BF781CC7B201988742B0DB00BFA4
:10104000681C85B2029885428ADBBDE8FF9F0000DC
:101050006E6500082DE9FF4F85B0074691461D4695
:10106000DDE913A600200490304606EBD071C1F3F1
:10107000470B002434E0281B401EC1B20A2001F0B7
:101080001DF9B9FBF0F00A21B0FBF1F201FB1208E7
:101090000498A0B9681EA04211DDB8F1000F0CD170
:1010A000002004FB0B71CDE900A6029088B220223B
:1010B000129B0699FFF75CFC10E0012004900020D1
:1010C00008F13001CAB204FB0B71CDE900A6029011
:1010D00088B2129B0699FFF74BFC00BF601CC4B29C
:1010E000AC42C8DB09B0BDE8F08F10B50446201251
:1010F00000F01AF8E0B200F017F810BD10B5044681
:10110000204600F011F810BD10B50446082105482E
:10111000FFF745FA204600F007F808210148FFF7DD
:1011200040FA10BD0008014070B504461021124875
:10113000FFF735FA002517E001210F48FFF72FFAD6
:1011400004F0800020B102210B48FFF72AFA03E0E7
:1011500002210948FFF723FA01210748FFF721FA86
:101160006006040E681CC5B2082DE5DB102102489C
:10117000FFF717FA70BD00000008014000BFFEE74E
:101180007047000070B5002100230F22C47804B31B
:10119000154C246804F4E064C4F5E064210AC1F14C
:1011A0000403CA40447804FA03F1847814402143CC
:1011B00009010E4C0678A155047804F01F0501249E
:1011C000AC4005786D11AD0005F1E025C5F8004192
:1011D00009E0047804F01F050124AC40044D0678B2
:1011E000761145F8264070BD0CED00E000E400E00B
:1011F00080E100E002490143024A116070470000AB
:101200000000FA050CED00E07047000029B1064A25
:10121000D2690243044BDA6104E0034AD269824393
:10122000014BDA61704700000010024029B1064A04
:1012300092690243044B9A6104E0034A9269824333
:10124000014B9A6170470000001002402DE9F04701
:101250008AB004460D46924600222C4B2046294671
:1012600001F0F0F92A4A2B4BCDE9000101F0CAFB4D
:10127000064600F09BFECDE90401504601F097FBC5
:10128000CDE90201DDE9042301F0BCFB8046002228
:10129000214B01F027F9CDE9080100221B4B204624
:1012A000294601F0CFF91A4A1A4BCDE9000101F0A5
:1012B000A9FBCDE9020101F075F806460F4650463C
:1012C00001F075FB32463B46CDE9040101F09AFB83
:1012D00080460022114B01F093FCCDE90601DDE9C7
:1012E000060101F037FB86B2DDE9080101F032FBAF
:1012F00087B24FF4FC6033463A46AC210090A02000
:10130000FFF791F90AB0BDE8F08700000080664061
:101310004AD8124DFB21094000006440008065401E
:101320002DE9F0478AB004460D46924600222A4B2A
:101330002046294601F086F9284A294BCDE90001CB
:1013400001F060FB064600F031FECDE90401504695
:1013500001F02DFBCDE90201DDE9042301F052FB90
:10136000804600221F4B01F0BDF8CDE908010022A4
:10137000194B2046294601F065F9184A184BCDE96A
:10138000000101F03FFBCDE9020101F00BF8064638
:101390000F46504601F00BFB32463B46CDE90401B7
:1013A00001F030FB804600220F4B01F029FCCDE913
:1013B0000601DDE9060101F0CDFA86B2DDE908019A
:1013C00001F0C8FA87B24FF4784231463846FFF749
:1013D00080F90AB0BDE8F087008066404AD8124D17
:1013E000FB2109400000644000806540704710B553
:1013F00000F002F810BD00000CB500200190009034
:101400003348006840F480303149086000BF3048FC
:10141000006800F4003000900198401C0190009892
:1014200018B90198B0F5A06FF1D12948006800F40F
:10143000003010B10120009001E0002000900098E1
:10144000012843D12348006840F01000214908607A
:101450000846006820F0030008600846006840F075
:10146000020008601A484068194948600846406808
:1014700048600846406840F480604860084640681C
:1014800020F47C1048600846406840F4E81048604A
:101490000846006840F08070086000BF0C48006893
:1014A00000F000700028F9D00948406820F00300DF
:1014B000074948600846406840F00200486000BFA5
:1014C0000348406800F00C000828F9D10CBD00006A
:1014D0000010024000200240042808D14FF0E02113
:1014E000096941F004014FF0E022116107E04FF07B
:1014F000E021096921F004014FF0E02211617047F9
:101500007047000010B51348006840F00100114911
:10151000086008464068104908400E49486008467F
:1015200000680E4908400B4908600846006820F42E
:10153000802008600846406820F4FE0048604FF4B0
:101540001F008860FFF753FF4FF0006004490860F8
:1015500010BD0000001002400000FFF8FFFFF6FE83
:1015600008ED00E010B50121094800F06DF80128F0
:101570000CD10848D0E90020521C40F10000054978
:10158000C1E900200121024800F04FF810BD000021
:10159000000400401800002030B589B005460C4614
:1015A00001210420FFF732FE01210820FFF73EFE53
:1015B00018208DF823004020ADF8200003208DF87E
:1015C000220008A91548FEF756FF681E80B2ADF844
:1015D0001800601E80B2ADF814000020ADF81A00AB
:1015E000ADF8160005A90E4800F0A6F86020ADF889
:1015F00004000120ADF806000020ADF80C0001A9A0
:10160000074800F041F80821054800F089F8012159
:10161000034800F00DF809B030BD0000000C014097
:1016200000080040CA4302827047CA4302827047E2
:1016300021B1028842F00102028004E002884FF6E4
:10164000FE731A400280704730B502460020002326
:101650000024158A05EA0103958905EA010413B1FE
:101660000CB1012000E0002030BD1AB183890B438A
:10167000838102E083898B438381704701894FF620
:10168000F87211400181704770B5002400220023D8
:10169000058C4FF6FE7635400584028C8388048BDA
:1016A0004FF68F752C40B51E2C400D882C43751EAF
:1016B0002A400D892A434D882A43144DA8420BD055
:1016C000134DA84208D0134DA84205D0124DA84290
:1016D00002D0124DA84213D14FF6F7752A404D891A
:1016E0002A434FF6FB752A408D882A434FF6FF6543
:1016F0002B404FF6FF552B408D892B43CD892B4333
:1017000083800483CD888586028470BD002C0140CF
:1017100000340140004001400044014000480140C5
:101720000A460021018B4FF6F773194011430183DC
:101730007047818670470000002202881D4B984246
:101740000ED01D4B98420BD0B0F1804F08D01B4BF0
:10175000984205D01A4B984202D01A4B984204D1B5
:101760004FF68F731A404B881A43174B984207D095
:10177000164B984204D04FF6FF431A40CB881A43C9
:1017800002808B8883850B8803850A4B98420BD097
:10179000094B984208D00E4B984205D00D4B984209
:1017A00002D00D4B984201D10B7A0386012383822C
:1017B00070470000002C014000340140000400404C
:1017C00000080040000C00400010004000140040E1
:1017D0000040014000440140004801401FB5012184
:1017E0000220FFF713FD1A48FFF748FF0020ADF86D
:1017F0000A00ADF806000920ADF808004720ADF852
:10180000040000208DF80C0001A91148FFF794FF97
:1018100001210F48FFF706FF012211460C48FFF790
:1018200024FF4FF4A060FFF7E5FC1D208DF80000B9
:1018300001208DF8030002208DF801008DF80200D0
:101840006846FFF79FFC01210148FFF7F1FE1FBD2D
:101850000004004010B540F225511D4800F03EF84C
:1018600010B31B4800F064F8C4B21A48008800F4B2
:101870000040C8B91748008800F4804060B10A2CC5
:1018800003D000201349088020E01248008840F46B
:1018900000401049088019E00D2C06D10D48008841
:1018A00040F480400B49088010E00A480088C0F3EB
:1018B0000D0009490C5407480088401C0549088060
:1018C00008460088C72801DD0020088010BD000000
:1018D00000380140300000203400002070B502467E
:1018E000002400230025002040F66A16B14200D1F2
:1018F00000BFC1F3421501F01F03012606FA03F3EE
:10190000012D02D19689334006E0022D02D1168ABC
:10191000334001E0968A33400C12012606FA04F4A3
:101920001688344013B10CB1012000E0002070BDD6
:1019300001468888C0F30800704700BFFEE74900F1
:1019400050EAC12018BF04204A0D18BF40F0010022
:1019500040F2FF72B2EB515F08BF40F00200012875
:1019600008BF0520704700002DE9F74F144694B0DA
:101970000021C4E902111599079121F00045C949D8
:101980008D4206DC1599C4E9000117B00020BDE8BE
:10199000F08FC549DFF814A3A9423CDD0799C44E76
:1019A0000029C44FC44A1599534619DD01F034F992
:1019B000554506D0C14AC24B01F02EF9C4E90001D9
:1019C0000AE04FF0D352BE4B01F026F932463B46B7
:1019D00001F022F9C4E9000117B00120BDE8F08F41
:1019E00000F080FD554506D0B44AB54B00F07AFDB5
:1019F000C4E900010AE04FF0D352B14B00F072FD90
:101A000032463B4600F06EFDC4E9000117B04FF0CE
:101A1000FF30BDE8F08FAB49A942159978DB21F082
:101A2000004183468846A84AA84B00F0EBFF0022FD
:101A3000A74B00F057FD00F05DFF099000F0B7FFE5
:101A400006460F469C4A534600F0DCFF43465A4682
:101A500001F0D6F880468A46984A994B3046394676
:101A600000F0D0FF2A0D01250B924246534601F0AB
:101A7000C7F8032DC4E9000139D00B98C1F30A510E
:101A8000401A05EB45111139814230DA9148C346BD
:101A9000784400EB0510CDF80CA00C90D0E90023A1
:101AA0003046394600F0AEFF02460B4604910690E0
:101AB0005846039901F0B0F880468A4602460B4624
:101AC0005846039901F0A8F8049B069A01F0A4F87F
:101AD00083460C9803913946D0E90223304600F042
:101AE00091FF5A46039B01F097F86D1CBDE70798DC
:101AF0000028A2BF099817B0BDE8F08F616881F097
:101B000000416160099817B04042BDE8F08FFFE7DF
:101B100084461598C1F31301C0F30A50A0F2F530C2
:101B20004FEA601800F01F06C6F120001390002055
:101B30000690079041F4801E05206D4676B1664AF6
:101B400008EB00017A4452F8213002EB8101B340E6
:101B50004A68139922FA01F1194305E05F4908EB3D
:101B60000002794451F82210A1FB0E27A1FB0C13AF
:101B70001A449A4234BF0123002303EB070A05EB02
:101B80008003D3E901B70F448F4234BF0121002104
:101B900093448B4411B1934502D903E0934501D29C
:101BA000012100E00021C3E901B7514445F82010AC
:101BB000011EA0F10100C1DC0298059F00F1005058
:101BC000800F12900298DDE90356800000F0EFFECE
:101BD000834628460D9100F001FF6FF01D0201F0D1
:101BE00037F9CDE90E01304600F0F8FE6FF03D0206
:101BF00001F02EF980468A46384600F0EFFE6FF07D
:101C00005D0201F025F9074642465346119100F066
:101C100069FCDDE90E2300F065FC5A460D9B00F0DF
:101C200061FC00250E465A4628460D9B00F0F4FF45
:101C3000DDE90E2300F0F0FF4246534600F0ECFFD2
:101C40003A46119B00F0DCFFDFF898A0244A534687
:101C500000F0D8FE07468846234A244B31462846E2
:101C600000F0D0FE3A46434600F03CFC074688466A
:101C70004FF0A84253463146284600F0C3FE3A468C
:101C8000434600F02FFC159A12F0004F04D0129A30
:101C900081F0004152421292C4E90001129817B03B
:101CA000BDE8F08FFB21E93F7CD90240FB21F93FE1
:101CB0007370032E8A19A33B000040543163621AEB
:101CC00061B4D03DFB21394183C8C96D305FE43F29
:101CD0000000E03F944D0000104D0000F24C000069
:101CE000182D4454FB21F93D3326A611460B113C17
:101CF0002DE9FF4D21F0004807460C46B8F1795F09
:101D000008DA00F0F7FD002801BF0020324904B0D6
:101D1000BDE8F08D3A4623461046194600F072FEA3
:101D2000054602462D480E460B460621784400F033
:101D30005DF82A46334600F065FEDDE9022382465F
:101D40008B463846214600F05DFE04460F4652465B
:101D50005B462846314600F055FE22463B4600F0E1
:101D60005BFF07468A464FF0FF322846314601F0B6
:101D70006FF81B4A90450ADA3A46534600F04CFF8A
:101D800004B00022BDE8F04D134B00F039BF154AF6
:101D90004245A8BFA8F500154FF00004B8BF124D8A
:101DA00022462B4600F038FF0646884622462B4640
:101DB0000020094900F030FF04460D463A465346DC
:101DC0003046414600F028FF04B022462B46BDE8CD
:101DD000F04D00F015BF00000000F03FC84A0000C1
:101DE0003333D33F0000E93F0000D23F2DE9F041FB
:101DF0004F1E00EBC7010446D1E9000115461E46FF
:101E000037F006020DD02A46334600F0FBFD7F1E58
:101E100004EBC703D3E9002300F064FB37F00602AC
:101E2000F1D1022F25D0042F13D0062F18BFBDE803
:101E3000F0812A46334600F0E5FDD4E90A2300F09C
:101E400051FB2A46334600F0DDFDD4E9082300F0BB
:101E500049FB2A46334600F0D5FDD4E9062300F0BD
:101E600041FB2A46334600F0CDFDD4E9042300F0BF
:101E700039FB2A46334600F0C5FDD4E9022300F0C1
:101E800031FB2A46334600F0BDFDD4E90023BDE80E
:101E9000F04100F027BB00002DE9FF4D054621F081
:101EA000004084B00C46B0F1795F0BDA2846FFF7AA
:101EB00046FD042808BF00F06FF8284608B0214608
:101EC000BDE8F08D2A460B46104600F09BFD064605
:101ED0000F462A46234600F095FD804626488A464E
:101EE00032463B4605217844FFF780FF8346109831
:101EF000029160B3214A224B4046514600F082FDD8
:101F0000CDE900015A4640465146029B00F07AFD59
:101F100082468846DDE906014FF0FF3200F098FF67
:101F20005246434600F078FE32463B4600F06AFDDA
:101F3000DDE9062300F070FEDDE9002300F06CFE11
:101F400008B02A462346BDE8F04D00F059BE0B46C6
:101F50005A463046394600F055FD084A084B00F015
:101F6000C1FA4246534600F04DFD08B02A462346CA
:101F7000BDE8F04D00F0B6BA064A00004955555587
:101F80005555C5BF012200F063BF0022134610461D
:101F9000114600F057BB0000024A0020110700F074
:101FA00057BF000001FDFFFF00BF704700B5244B85
:101FB00021F0004287B09A42DCBF0022134629DD9F
:101FC000204B9A4208D140B94FF00100FEF77DF94D
:101FD000FFF7DBFF07B000BD03DBFFF7D3FF07B060
:101FE00000BD02AAFFF7C0FC10F0030104BF0DF111
:101FF000080C9CE80F000DD0012001290ED0022909
:1020000014D00DF1080C00909CE80F00FFF744FF7E
:1020100007B000BDFFF76CFE07B000BD0DF1080C66
:1020200000909CE80F00FFF737FF05E00DF1080C6A
:102030009CE80F00FFF75CFE07B081F0004100BD97
:10204000FB21E93F0000F07F10B56FF00400FFF7BF
:1020500043FA0A4800680A49B0FBF1F009490870E0
:102060000846007800EB4001C1EBC0104FF6FF714D
:1020700001EAC0000449088010BD000000000020F3
:1020800000127A00280000202A0000200146114A90
:1020900012884A434FF0E0235A6100229A611A469F
:1020A000126942F001021A6100BF4FF0E02210698C
:1020B00000F001021AB100F48032002AF5D04FF08E
:1020C000E022126922F001024FF0E0231A6100229F
:1020D0009A6170472A0000200146114A12784A434B
:1020E0004FF0E0235A6100229A611A46126942F0C9
:1020F00001021A6100BF4FF0E022106900F00102F6
:102100001AB100F48032002AF5D04FF0E0221269B3
:1021100022F001024FF0E0231A6100229A61704719
:10212000280000200EB53224FFF7ECF9FFF78CFFF2
:10213000FFF754FBFEF740FBFEF73AFA4FF4347119
:102140004FF4FA60FFF728FA0020AC234FF4A07296
:1021500001460090FEF7F0FA00F0BCF8A8E04FF05E
:10216000000AD346D146322C4AD100BF46E000F0E7
:1021700069F98146202000214FF6FF72CDE9002148
:1021800002901FFA89F2032372212520FEF762FFD5
:10219000A1B24848FFF7CDFAA4F13200B421484378
:1021A000C82190FBF1FA202000214FF6FF72CDE903
:1021B000002102901FFA8AF2032302212520FEF754
:1021C00049FFB9F5FA7F01DD4FF00009484600F0FC
:1021D000EEFB07464FF03332374B00F013FC054659
:1021E00000F088FB8346504600F0E1FB05465A4666
:1021F000FFF796F86420FFF749FF641CFA2CB6DB62
:10220000FA2C54D100BF46E000F01CF98146202092
:1022100000214FF6FF72CDE9002102901FFA89F2EA
:10222000032372212520FEF715FFA1B22148FFF7F5
:1022300080FAA4F13200B4214843C82190FBF1FA9E
:10224000202000214FF6FF72CDE9002102901FFAF5
:102250008AF2032302212520FEF7FCFEB9F5FA7F5E
:1022600001DD4FF00009484600F0A1FB05464FF0A4
:102270003332114B00F0C6FB074600F03BFB8346B0
:10228000504600F094FB05465A46FFF749F8642093
:10229000FFF7FCFE641E322CB6DC0020AC234FF4AA
:1022A000A07201460090FEF747FA00F013F800BF55
:1022B00055E70000000800403333D33F10B5024615
:1022C000012000E050430B1EA1F10104E1B2F9D15D
:1022D00010BD00000EB54FF4FC632B22AC21A020F2
:1022E000FEF733F84FF4FC635622AC21A020FEF732
:1022F0002CF84FF4FC638122AC21A020FEF725F8D6
:102300004FF4FC63AC221146A020FEF71EF8C82251
:1023100000201C49FEF79AFFC82200201A49FEF748
:1023200095FFC82200201949FEF790FFC82200201F
:102330001749FEF78BFFC82200201649FEF786FFDB
:102340000020B6234FF4A072AC210090FEF7CFF925
:102350004FF4FC60AB234FF4A072194600900020AC
:10236000FEF761F9002020214FF6FF724FF4784309
:10237000CDE90021029008A250210846FEF7A4FBF7
:102380000EBD000000003E4000004E400080564060
:1023900000005E4000C06240B3ACC9F9B2A8C0D72B
:1023A000B4EF000000B5254B21F0004287B09A42FF
:1023B00003DC0022134600922BE0214B9A4208D105
:1023C00040B94FF00100FDF780FFFFF7DEFD07B0D9
:1023D00000BD03DBFFF7D6FD07B000BD02AAFFF783
:1023E000C3FA10F003014FF001000DD0012914D001
:1023F00002291AD00DF1080C9CE80F00FFF778FCB9
:1024000007B081F0004100BD0DF1080C00909CE880
:102410000F00FFF741FD07B000BD0DF1080C9CE86F
:102420000F00FFF765FC07B000BD0DF1080C009030
:102430009CE80F00FFF730FDE2E70000FB21E93FD9
:102440000000F07F2DE9F0410025012211462248CD
:10245000FEF7A9F80F20FFF73FFE002201211E48DA
:10246000FEF7A1F800BF02211B48FEF78FF80028F5
:10247000F9D00021194A1160516000BF02211648AD
:10248000FEF784F80128F9D01448D0E90010144A66
:10249000C2E9001064220023114903C9FDF795FE2B
:1024A000263871F1000113D20D484FF4AD7306C800
:1024B0000020A1FB036802FB038201FB0021022232
:1024C00003463046FDF781FE04466420B4FBF0F578
:1024D00028B2BDE8F0810000000C01401800002087
:1024E0002000002010B591EA030F48BF83F000439D
:1024F00000F19A83841A71EB030C05D2121943EB95
:102500000C03001B61EB0C01DFF824E14FEA1154CE
:10251000A4EB135C1EEA430F18BF9EEA445F73D01E
:1025200023EA0E03DCF1200E21EA045143F4801368
:1025300032D322FA0CFE10EB0E0023FA0CFE41EB14
:102540000E01CCF1200E03FA0EFE10EB0E0051F13D
:102550000001B1F5801FCCF1200E32D201EB045105
:1025600012FA0EF2BDE8104058BF7047401C38BF49
:102570005FEA420218BF7047002814BF20F0010034
:1025800041F100014FEA410313F5001F38BF7047C6
:10259000A1F1C04100F02EBB012A43EB0302ACF1D4
:1025A000200CDCF11F0E32BF4FF0000E23FA0CF3AB
:1025B00010EB030041EB0451B4EB115FD0D0A1EB61
:1025C000045101F5801149085FEA300001EB045124
:1025D0000ED350F1000038BF12FA0EFE08D1BDE84C
:1025E0001040C9E7401C38BF5FEA4202CAD1C3E7C6
:1025F000BDE810404FEA410313F5001F38BF704794
:10260000A1F1C04100F0F6BA9EEA445F08D011EA99
:102610005E0FBDE8104004BF01F00041002070478C
:10262000BDE8104070B500F097FA00BF64FBBE3EF5
:102630000000E0FF02494FF0000000F0D7BB00BFF0
:102640000000F87F2DE9C04130B4DFF8A0C23CEAB9
:10265000111418BF3CEA131400F0EC8081EA030562
:102660001CEA111444EAD57418BF1CEA131500F0D3
:10267000C780A4EB05044FF0004545EAC12145EAB7
:10268000C32341EA505143EA525304F17F74994203
:1026900004F500344FEAC0204FEAC22208BF90423E
:1026A00000F09C804FEA13650FF24016765D4FEA0A
:1026B000134506FB05F7C7F1807706FB07F74FEADE
:1026C000D737A7FB03687642C8F58038A7FB06CE4C
:1026D00038BFA8F1010807FB08E64FF0000EA6FB83
:1026E000028CE6FB03CEDCF1000CCEF1004E38BFCD
:1026F000AEF1010EA6FB0C584FF000074FF000059D
:10270000E6FB0E87A1FB08C6A0FB07CE16EB0E0664
:1027100045F10005E1FB076515F1E04E7EBFA4F52C
:1027200080345FEA46066D4116F1800745F10005E9
:102730004FEA17274FEA066647EA0567A6F1DE4625
:10274000B6F1805F4FEA15251FD9384624F0010CF9
:1027500005EBC471BCF1FE6F01EB0C1102D8F0BCAB
:10276000BDE8008124425CBF01F5801E9EEAC47F63
:1027700002D4F0BCBDE80081244238D4F0BCA1F101
:10278000C041BDE8004100F035BA4FEAD22242EA2A
:1027900043524FEAD323A7FB02864FEAD02040EAF8
:1027A000415007FB03661EEA0E0F4FEAD12105FBDD
:1027B000026658BFA6EB0056B6EB00564FEA520E23
:1027C0004EEAC37E18EB0E0E56EB530EBDD518EB3A
:1027D00002085E417F1C55F10005B6E74FF48015F5
:1027E0004FF000074FF000064FF00008ADE7F0BCD7
:1027F0004FF0000001F1C04101F00041BDE800814F
:1028000011EA0C1F0CEA131500D00CE013EA0C1FA0
:1028100000F025804FF00000F0BC81EA030101F0D8
:102820000041BDE80081F0BCBDE8004181EA030140
:1028300000F0E0B9F0BCBDE8004170B500F08CF9E3
:10284000097EFC3E00F007B881EA03014FF000006A
:1028500001F00041704781EA030100F0CBB9F0BC00
:10286000BDE800414FF0000021497047FFFDFBF932
:10287000F7F5F4F2F0EEEDEBE9E8E6E4E3E1E0DEB3
:10288000DDDBDAD8D7D5D4D3D1D0CFCDCCCBCAC825
:10289000C7C6C5C4C2C1C0BFBEBDBCBBBAB9B8B74C
:1028A000B6B5B4B3B2B1B0AFAEADACABAAA9A8A83F
:1028B000A7A6A5A4A3A3A2A1A09F9F9E9D9C9C9B0D
:1028C0009A999998979796959594939392919190B8
:1028D0008F8F8E8E8D8C8C8B8B8A89898888878749
:1028E0008685858484838382828181800000FF07BE
:1028F0000000F87F4FEA41034FEA5353A3F580638A
:10290000D3F11E03C8BFD3F1210C0CDD4FF0004200
:1029100042EAC12242EA505232FA03FC8CEAE17CDC
:10292000ACEBE1707047102BC4BF0020704703F57B
:10293000787CBCF1FF3F04D06FF0004282EA2100B6
:10294000704770B500F008F9499224800020704764
:10295000F2E700004FEA1153A3F58063D3F11E03A1
:10296000A8BFD3F1200C08DB4FF0004242EAC1229D
:1029700052EA505232FA03F0704709420BD4102B3E
:10298000C4BF0020704703F5787CBCF1FF3F05D041
:102990004FF0FF3070474FF00000704770B500F007
:1029A000DBF800BF4992248000207047F0E710F068
:1029B000004248BF4042B0FA80F310FA03F10AD057
:1029C000C3F11D0303F580634FEA415002EB03524C
:1029D00002EBD12170474FF000007047B0FA80F34E
:1029E00010FA03F10AD0C3F11D0303F580634FEA27
:1029F00041504FEA035202EBD12170474FF00000E3
:102A000070470000DFF848C170B51CEA111E1EBFF8
:102A10001CEA13159EEA0C0F95EA0C0F00F06F806C
:102A200081EA030423EA4C134EEAD47E21EA4C11D6
:102A300041F4801143F48013AE44A1FB024CA0FB8F
:102A40000365AEF17F7E361955EB0C05A1FB034CF7
:102A50004CF10003A0FB021C16EB0C06654153F180
:102A60000003094218BF46F0010613F4007F0BD1A2
:102A70004FEA03314FEA0530340341EA155140EA89
:102A800016506FF003020AE04FEAC3214FEAC52057
:102A9000F40241EA555140EA56506FF0020202EB4F
:102AA0002E4201EB025585EACE710AD05FEA440C52
:102AB00018BF24F0004450F1000041F1000120EA69
:102AC000D47040F2FE7C624500D270BDA84214BFB3
:102AD0004FF080444FF04044002E08BF0024BEF168
:102AE000806FA8BFA1F1C041BDE8704080F2828034
:102AF0004FF0000001F1C04101F0004170479EEA33
:102B00000C0F0CEA131518BF95EA0C0F06D04FF006
:102B1000000081EA030E0EF0004170BD00F01CF8C9
:102B20008900013E00F007B800F009B84FEA430CF5
:102B30005FEA5C5C08D081EA030100F05BB84FEA11
:102B4000410C5FEA5C5CF6D14FF000000149704730
:102B50000000FF070000F87F0EF1020E2EF0030EBA
:102B60005EF8046B364205D4012A43EB030515F5E4
:102B7000001F12D8012841EB010C1CF5001F0CD8D6
:102B80000ED14FEAD17C15F5001F0CEB4C0C0CF16B
:102B9000020C08BF4CEBD37C04E04FF0080C01E0C2
:102BA0004FEAD37C0CEB4C0526FA05F606F0070637
:102BB000B6F1040C06D20EEB860CBDE870404CF06A
:102BC000010C6047DFE80CF0090B02024FF00041F6
:102BD0004FF00000A1F5002170BD194610460128F4
:102BE00051EB010418BFD4F5001484BF002001F09C
:102BF000004170BD0808A0F500114FEA310170478F
:102C000091EA030F10B581F000413FF573AC83F0FA
:102C1000004300F009B8000010B591EA030F48BF67
:102C200083F000433FF566AC841A71EB030C07D2C6
:102C300012198CF0004C43EB0C03001B61EB0C01F0
:102C4000DFF8A4E14FEA1154A4EB135C1EEA430F32
:102C500018BF9EEA445F00F0B08023EA6E03524240
:102C600021EA0451C3EB6E0338BF5B1EDCF1200E7A
:102C700025D322FA0CFE10EB0E0043FA0CFE41EBBA
:102C80000E01CCF1200E03FA0EFE10EB0E0051F1F6
:102C90000001CCF1200E29D412FA0EF201EB0451FE
:102CA000BDE8104058BF7047401C1CBFB2F1004F38
:102CB000704700280CBF491C20F00100704712EB40
:102CC000020E43EB030218BF4FF0010E4EEA420220
:102CD000ACF1200CDCF11E0E54D943FA0CFE10EBC3
:102CE0000E0051F1FF31CCF11E0ED5D50EF1010EC3
:102CF00012FA0EFE404141EB010101EB445C5FEA38
:102D00005C5C10D910EBDE7001EB045138BFBEF1F2
:102D1000004FBDE8104018BF704700280CBF491C89
:102D200020F00100704730D24FEAD42C11F5001189
:102D300024F400641BD0B1FA81F20B3AA41AA41E49
:102D4000D2F12003914030FA03F31943904001EB94
:102D5000CC71002C01EB0451BDE81040A8BF7047B6
:102D600001F1C0414FF0000001F000417047B0FA9E
:102D700080F310FA03F100D110BDE41A173C4805A6
:102D8000C90AE4E701EB045110BD491001EB0451FD
:102D9000BDE810404FEA300002E04FF000017047FC
:102DA0004A0008BF0042F8D0B2F5001F28BF7047A4
:102DB00001F000414FF0000070479EEA445F07D0E9
:102DC00011EA5E0FBDE8104004BF002100207047EB
:102DD000BDE8104070B5FFF7BFFE00BF40DFF63E14
:102DE00083F00041104670470000E0FF0CF00F0335
:102DF000092B08BF082000F059800A2B0BD0082BA4
:102E000018BF704708BF1CF0400F0AD04FF00000F9
:102E10004FF0000170471CF0400F18BF4FF000400A
:102E200070471CF0100F08D020F0704300F07F4274
:102E300042EAD3014FEA4370704700F0604021F04E
:102E40007F4242EA000201F07F4040EA7270704720
:102E50004FF0FF0C4CF4E06C1CEA11531CBF9CEAD1
:102E6000030C9445C2BFDA4201EB02517047002BBC
:102E70000DD0BCF1000F0FD0002A01F00041A4BF1B
:102E800041F0E04141F07F614FF00000704701F0F8
:102E900000414FF00000704750EA01334FF09B0CA7
:102EA00018BF4CF0806C7FF4C5AB70471CF4801FDA
:102EB00011D01CF4E02F03D06FEACC3149007047E9
:102EC0004FF04050EFF3008222F0704242EA0002DD
:102ED00082F3008870474FF0000070470000000048
:102EE00000000000000000000000040404040400CE
:102EF0000004000014140A0000000000000000009C
:102F000000000A0A1F0A0A1F0A0A000000040E1520
:102F100005060C14150E0400000012150D152E2CBC
:102F20002A1200000000040A0A36151529160000AE
:102F30000202010000000000000000001008080468
:102F4000040404040808100002040408080808081F
:102F50000404020000000004150E0E150400000019
:102F600000000008083E0808000000000000000003
:102F7000000000000202010000000000003F00000D
:102F8000000000000000000000000000000200003F
:102F900000201010080804040202010000000E11B5
:102FA00011111111110E00000000040604040404A4
:102FB000040E000000000E1111080402011F0000A1
:102FC00000000E11100C1010110E00000000080C73
:102FD0000C0A091F081C000000001F01010F11103E
:102FE000110E000000000C12010D1311110E000053
:102FF00000001E10080804040404000000000E1164
:10300000110E1111110E000000000E1111191610F1
:103010000906000000000000040000000004000099
:10302000000000000004000000040400000010087C
:103030000402020408100000000000003F003F00EE
:103040000000000000000204081010080402000044
:1030500000000E11110804040004000000001C22EE
:10306000292D2D1D221C0000000004040C0A0A1E3C
:103070001233000000000F12120E1212120F000085
:1030800000001E1101010101110E000000000F12CD
:1030900012121212120F000000001F120A0E0A0272
:1030A000121F000000001F120A0E0A020207000091
:1030B00000001C1201013911120C00000000331233
:1030C000121E12121233000000001F040404040434
:1030D000041F000000003E08080808080808090747
:1030E000000037120A060A12123700000000070219
:1030F00002020202223F000000003B1B1B1B1515B1
:103100001535000000003B1216161A1A121700009F
:1031100000000E1111111111110E000000000F120C
:10312000120E02020207000000000E111111111709
:10313000190E180000000F12120E0A1212370000AA
:1031400000001E1101060810110F000000001F15DD
:1031500004040404040E00000000331212121212C0
:10316000120C000000003312120A0A0C04040000C2
:103170000000151515150E0A0A0A000000001B0AAA
:103180000A04040A0A1B000000001B0A0A0A0404BD
:10319000040E000000001F0908040402121F0000B2
:1031A0001C0404040404040404041C0000020204BB
:1031B00004040808081010000E0808080808080889
:1031C00008080E00040A00000000000000000000D3
:1031D00000000000000000000000003F02040000AA
:1031E000000000000000000000000000000C121CA5
:1031F000123C000000030202020E1212120E000026
:1032000000000000001C1202120C00000018101038
:10321000101C1212123C000000000000000C121ED4
:10322000021C000000182404041E0404041E0000F4
:1032300000000000003C120C021C221C00030202D1
:10324000020E1212123700000004040000060404EB
:10325000040E000000080800000C08080808080711
:1032600000030202021A0A060A13000000070404FF
:1032700004040404041F000000000000000F1515E2
:103280001515000000000000000F12121237000098
:1032900000000000000C1212120C000000000000E0
:1032A000000F1212120E020700000000001C121282
:1032B000121C103800000000001B0602020700006C
:1032C00000000000001E020C101E000000000004A0
:1032D000041E0404041C000000000000001B121265
:1032E000123C000000000000001B0A0A0404000059
:1032F000000000000015150E0A0A00000000000082
:10330000001B0A040A1B0000000000000033121218
:103310000C08040300000000001E0804041E000046
:1033200018080808080C0808080818000808080801
:103330000808080808080808060404040408040427
:103340000404060016090000000000000000000050
:10335000000000000000000000000000000000006D
:1033600000000008080808080808000018180000F5
:1033700000486C2412000000000000000000000063
:103380000000002424247F1212127F121212000067
:103390000000081C2A2A0A0C1828282A2A1C0808B7
:1033A00000000022251515152A58545454220000F7
:1033B0000000000C1212120A76252911916E0000ED
:1033C00000060604030000000000000000000000EA
:1033D00000402010100808080808081010204000BD
:1033E0000002040808101010101010080804020051
:1033F0000000000008086B1C1C6B0808000000009F
:1034000000000000080808087F08080808000000FD
:103410000000000000000000000000000606040399
:103420000000000000000000FE000000000000009E
:103430000000000000000000000000000606000080
:103440000000804040202010100808040402020000
:103450000000001824424242424242422418000026
:10346000000000080E08080808080808083E0000C8
:103470000000003C4242422020100804427E00002E
:103480000000003C4242201820404042221C000024
:10349000000000203028242422227E2020780000F2
:1034A0000000007E0202021A26404042221C000058
:1034B000000000382402021A26424242241800006A
:1034C0000000007E222210100808080808080000EA
:1034D0000000003C4242422418244242423C000088
:1034E000000000182442424264584040241C00005E
:1034F000000000000000181800000000181800006C
:10350000000000000000000800000000000808049F
:1035100000000040201008040204081020400000B1
:103520000000000000007F0000007F00000000009D
:1035300000000002040810204020100804020000CF
:103540000000003C424246402010100018180000C5
:103550000000001C225A555555552D42221C0000D2
:103560000000000808181414243C224242E700001E
:103570000000001F2222221E22424242221F00007F
:103580000000007C4242010101010142221C0000B6
:103590000000001F2242424242424242221F0000DB
:1035A0000000003F4212121E12120242423F00006F
:1035B0000000003F4212121E121202020207000017
:1035C0000000003C2222010101712122221C000086
:1035D000000000E7424242427E42424242E700008F
:1035E0000000003E0808080808080808083E000017
:1035F0000000007C10101010101010101010110F8F
:103600000000007722120A0E0A121222227700000E
:10361000000000070202020202020202427F0000D2
:1036200000000077363636362A2A2A2A2A6B00000E
:10363000000000E346464A4A525252626247000086
:103640000000001C2241414141414141221C000037
:103650000000003F424242423E02020202070000D6
:103660000000001C2241414141414D53321C600089
:103670000000003F4242423E1212222242C7000096
:103680000000007C4242020418204042423E0000FA
:103690000000007F4908080808080808081C000006
:1036A000000000E74242424242424242423C0000A5
:1036B000000000E7424222242414141808080000E5
:1036C0000000006B49494949555536222222000025
:1036D000000000E7422424181818242442E70000C0
:1036E000000000772222141408080808081C0000B3
:1036F0000000007E2120101008040442423F000018
:103700000078080808080808080808080808780069
:103710000000020204040808081010202020404085
:10372000001E1010101010101010101010101E009D
:10373000003844000000000000000000000000000D
:10374000000000000000000000000000000000FF7A
:10375000000608000000000000000000000000005B
:10376000000000000000003C4278444242FC00009F
:10377000000000030202021A26424242261A0000FA
:10378000000000000000003844020202443800003B
:1037900000000060404040784442424264D800004B
:1037A000000000000000003C427E0202423C00009B
:1037B000000000F08808087E08080808083E00009D
:1037C000000000000000007C22221C023C42423C1F
:1037D000000000030202023A4642424242E7000071
:1037E0000000000C0C00000E08080808083E00004D
:1037F0000000003030000038202020202020221E31
:103800000000000302020272120A16122277000060
:103810000000000E0808080808080808083E000014
:10382000000000000000007F9292929292B7000088
:10383000000000000000003B4642424242E7000018
:10384000000000000000003C42424242423C0000B6
:10385000000000000000001B26424242221E020718
:10386000000000000000007844424242447840E0FA
:1038700000000000000000774C040404041F000056
:10388000000000000000007C42023C40423E00007C
:10389000000000000008083E080808080830000082
:1038A00000000000000000634242424262DC00006F
:1038B00000000000000000E7422424140808000073
:1038C00000000000000000EB49495555222200008D
:1038D000000000000000007624181818246E000074
:1038E00000000000000000E7422424141808080724
:1038F000000000000000007E22100808447E000046
:1039000000C0202020202010202020202020C000C7
:1039100010101010101010101010101010101010A7
:103920000006080808080810080808080808060023
:103930000C32C20000000000000000000000000087
:103940000000000000000000000000000000000077
:103950000000000000000000000000000000000067
:103960000000000000000000000000000000000057
:1039700000000000000000006000600060006000C7
:103980006000600060004000200020002000000077
:103990000000000060006000600000000000000007
:1039A00000000000600660063003980188004400B3
:1039B0000000000000000000000000000000000007
:1039C00000000000000000000000000000000000F7
:1039D000000000000000000010021002100210029F
:1039E000FE07FE0708020801080108010801FE079A
:1039F000FE070401040104010401000000000000AE
:103A000000000000000040004000F00158034C039B
:103A1000CC034C0058007000E000C001C00140031E
:103A20004C035C034C034801F000400040000000E0
:103A300000000000000000000E010A01910091004A
:103A40009100510051003A00AE03A002500450040E
:103A50004804480448048402840300000000000075
:103A6000000000000000000038006C006C006C00DA
:103A70006C006C002C0098071C011A013301330103
:103A80006301E300C308C6093C0700000000000012
:103A9000000000000C001C001000100008000400D2
:103AA0000000000000000000000000000000000016
:103AB0000000000000000000000000000000000006
:103AC00000000000000400020001800080004000AF
:103AD00040002000200020002000200020002000C6
:103AE000400040008000800000010002000400004F
:103AF0000000000002000400080010001000200078
:103B000020004000400040004000400040004000D5
:103B10002000200010001000080004000200000037
:103B20000000000000000000000000004000C00095
:103B30004000460C4E0FD001F0015E0F460C4000D5
:103B400040004000000000000000000000000000F5
:103B50000000000000000000000000000000400025
:103B60004000400040004000FE0F40004000400088
:103B700040004000000000000000000000000000C5
:103B80000000000000000000000000000000000035
:103B90000000000000000000000000000000000025
:103BA000000000000C001C001000100008000400C1
:103BB0000000000000000000000000000000000005
:103BC0000000000000000000FE07000000000000F0
:103BD00000000000000000000000000000000000E5
:103BE00000000000000000000000000000000000D5
:103BF00000000000000000000000000000000000C5
:103C0000000000001C001C001C0000000000000060
:103C10000000000000040006000200030001000193
:103C20008000800040004000600020002000100064
:103C30001000080008000C0004000600020000004C
:103C400000000000000000000000F00098010C03DC
:103C50000C03060606060606060606060606060601
:103C600006060C030C039801F000000000000000A1
:103C70000000000000000000000040007C00600028
:103C80006000600060006000600060006000600034
:103C90006000600060006000FC03000000000000A5
:103CA00000000000000000000000F8008401020392
:103CB00006030603000300018001C000600020002D
:103CC0001000080204020602FE03000000000000CB
:103CD000000000000000000000007800C60086011F
:103CE000860180018001C000700080010001000396
:103CF0000003060306038601F80000000000000030
:103D00000000000000000000000080018001C001F0
:103D1000A001A00190018801880184018201FE0FA9
:103D20008001800180018001E007000000000000A8
:103D300000000000000000000000FC03040004007C
:103D4000040004000400F4008C01040300030003D9
:103D50000603060382018401F80000000000000051
:103D600000000000000000000000E00118030C0348
:103D70000C0004000600E60116030E060606060601
:103D8000060604060C021803F00000000000000004
:103D900000000000000000000000F8070C0604020C
:103DA000040100010001800080004000400040004C
:103DB0006000600060006000600000000000000023
:103DC00000000000000000000000F8010C030606DF
:103DD000060606060C021C03F000C8010C030606CA
:103DE0000606060606060C03F001000000000000AF
:103DF00000000000000000000000F0000C010C03B7
:103E0000060206060606060606078C067806000663
:103E1000000300030C018C0178000000000000008A
:103E20000000000000000000000000000000000092
:103E300000000000E000E000E000000000000000E2
:103E400000000000E000E000E000000000000000D2
:103E50000000000000000000000000000000000062
:103E60000000000060006000000000000000000092
:103E70000000000000006000600040002000200002
:103E800000000000000000000004000200018000AB
:103E9000400020001000080004000800100020006E
:103EA000400080000001000200040000000000004B
:103EB0000000000000000000000000000000000002
:103EC00000000000FE07000000000000FE070000E8
:103ED00000000000000000000000000000000000E2
:103EE0000000000000000000040008001000200096
:103EF0004000800000010002000400020001800078
:103F00004000200010000800040000000000000035
:103F100000000000000000000000E0031806040C90
:103F2000040C0C0C0C0C0007800140004000400009
:103F300000000000E000E000E000000000000000E1
:103F40000000000000000000E00018030C02CC0597
:103F500064056605A605B604B604B604B604B60242
:103F6000E4010C040C021803F00000000000000043
:103F70000000000000000000000060006000500031
:103F8000D00090009000880088010801F801040327
:103F900004030402020202060F0F000000000000EA
:103FA00000000000000000000000FE008C030C0375
:103FB0000C030C030C038C01FC000C030C020C061C
:103FC0000C060C060C060C03FE01000000000000AD
:103FD00000000000000000000000E00318030C06D1
:103FE0000C04040406000600060006000600060095
:103FF00006040C040C021803F0000000000000008E
:10400000000000000000000000007F008C010C0395
:104010000C030C060C060C060C060C060C060C0613
:104020000C060C030C038C017F0000000000000054
:1040300000000000000000000000FF03060306046B
:104040000604060086008600FE00860086008600C4
:104050000600060406040602FF030000000000003C
:1040600000000000000000000000FF03060306043B
:104070000604060086008600FE0086008600860094
:1040800006000600060006001F00000000000000F9
:1040900000000000000000000000F00018010C0209
:1040A0000C0204020600060006000600C60F060306
:1040B00006030C030C031803F000000000000000CE
:1040C000000000000000000000000F0F06060606BA
:1040D0000606060606060606FE0706060606060687
:1040E00006060606060606060F0F00000000000082
:1040F00000000000000000000000FC036000600001
:1041000060006000600060006000600060006000AF
:104110006000600060006000FC0300000000000020
:1041200000000000000000000000F807C000C00010
:10413000C000C000C000C000C000C000C000C0007F
:10414000C000C000C000C000C000C60066003C0047
:1041500000000000000000000000CF038601C60040
:1041600046002600160036002E006E004600C600EF
:1041700086008601060106038F070000000000008C
:10418000000000000000000000001F000600060004
:1041900006000600060006000600060006000600EF
:1041A0000600060406040602FF03000000000000EB
:1041B00000000000000000000000070786038603DF
:1041C0008E038E034E034E034A035A035A033A03E7
:1041D000320332033203120387070000000000009D
:1041E000000000000000000000008E0F0C021C0206
:1041F0001C0234023402640264024402C4028402D7
:1042000084038403040304031F0200000000000071
:1042100000000000000000000000F00098010C0306
:104220000C0206060606060606060606060606062C
:1042300006060C020C039801F000000000000000CC
:1042400000000000000000000000FF00060306065A
:1042500006060606060606068603FE00060006009B
:1042600006000600060006001F0000000000000017
:1042700000000000000000000000F00098010C03A6
:104280000C020606060606060606060606060606CC
:1042900076064C02CC039801F00080070003000072
:1042A00000000000000000000000FF0106030606F9
:1042B0000606060606060603FE004600C600860041
:1042C00086010603060306060F0E0000000000002C
:1042D00000000000000000000000F8020C030602CD
:1042E000060206000E003C00F800E0038003000711
:1042F0000206020606060C03F001000000000000A2
:1043000000000000000000000000FE0762046108D9
:104310006108600060006000600060006000600094
:104320006000600060006000F80100000000000014
:10433000000000000000000000001E070C020C023C
:104340000C020C020C020C020C020C020C020C02FD
:104350000C020C020C021801F0000000000000002A
:10436000000000000000000000000F07060204012A
:1043700004010C010C01880088009800980050008E
:1043800050007000300020002000000000000000FD
:1043900000000000000000000000F70E620442046C
:1043A0004604460464026402E402E4029C029C01A6
:1043B0009801980188018800880000000000000032
:1043C000000000000000000000009E070C01080132
:1043D00018019000B0006000200060006000D00074
:1043E00090008801080104038E070000000000000F
:1043F000000000000000000000000F0F060404028F
:104400000C0208011801B800B000700060006000E4
:104410006000600060006000F80100000000000023
:1044200000000000000000000000FC070C02060372
:1044300002018001800040004000200020001000A8
:10444000180008040C040402FE0300000000000031
:1044500000000000E00320002000200020002000D9
:10446000200020002000200020002000200020004C
:10447000200020002000200020002000E003000099
:104480000000000000000000040004000800080014
:104490001000100010002000200040004000C0006C
:1044A0008000800000010001000200020002000400
:1044B000000000007C004000400040004000400040
:1044C00040004000400040004000400040004000EC
:1044D0004000400040004000400040007C000000E0
:1044E00000006000900008010000000000000000D3
:1044F00000000000000000000000000000000000BC
:1045000000000000000000000000000000000000AB
:10451000000000000000000000000000000000009B
:10452000000000000000000000000000000000008B
:104530000000000000000000000000000000FF0F6D
:1045400000000000180060000000000000000000F3
:10455000000000000000000000000000000000005B
:10456000000000000000000000000000000000004B
:10457000000000000000000000000000000000003B
:1045800000000000F0010C030C030003E0031C0317
:104590000E03060306038E0B7C0E000000000000D5
:1045A000000000000000000008000E000C000C00DD
:1045B0000C000C00CC013C031C060C060C060C067F
:1045C0000C060C060C021C03E401000000000000B5
:1045D00000000000000000000000000000000000DB
:1045E00000000000F0008C018C018601060006002E
:1045F000060006020C020C01F000000000000000A2
:1046000000000000000000000002C00300030003DF
:104610000003000378038C030C0306030603060360
:104620000603060304038C07780100000000000065
:10463000000000000000000000000000000000007A
:1046400000000000E001180308020C060C06FC073D
:104650000C000C0018041802E0010000000000002B
:1046600000000000000000000000C00360063006EB
:1046700030003000FE0130003000300030003000EB
:104680003000300030003000FC010000000000006D
:10469000000000000000000000000000000000001A
:1046A00000000000F007D8068C018C018C019801F5
:1046B000F8000C00FC00CC03060306038E03F80090
:1046C000000000000000000008000E000C000C00BC
:1046D0000C000C00EC011C030C030C030C030C037A
:1046E0000C030C030C030C039E07000000000000E9
:1046F00000000000000000000000600060000000FA
:10470000000040007C00600060006000600060000D
:104710006000600060006000FC030000000000001A
:1047200000000000000000000000C001C001000007
:1047300000000001F0018001800180018001800102
:10474000800180018001800180018001CC007C001B
:10475000000000000000000008000E000C000C002B
:104760000C000C008C038C008C004C006C005C0076
:104770008C008C010C010C039E070000000000005F
:10478000000000000000000040007C0060006000AD
:104790006000600060006000600060006000600019
:1047A0006000600060006000FC030000000000008A
:1047B00000000000000000000000000000000000F9
:1047C000000000003707EE06660666066606660607
:1047D0006606660666066606FF0F0000000000001B
:1047E00000000000000000000000000000000000C9
:1047F00000000000EE011C030C030C030C030C036F
:104800000C030C030C030C039E07000000000000C7
:104810000000000000000000000000000000000098
:1048200000000000F00098010C03060606060606CC
:10483000060606060C030C03F00000000000000052
:104840000000000000000000000000000000000068
:1048500000000000EE011C030C060C060C060C0602
:104860000C060C060C031C03EC010C000C003E00B3
:104870000000000000000000000000000000000038
:104880000000000078028C030C03060306030603F5
:104890000603060304038C03780300030003C00728
:1048A0000000000000000000000000000000000008
:1048B000000000009F035806380618001800180072
:1048C0001800180018001800FF0000000000000089
:1048D00000000000000000000000000000000000D8
:1048E00000000000F0031C030C020C023800F00072
:1048F000C003040304038C03FC010000000000005B
:104900000000000000000000000000002000200067
:1049100030003000FE013000300030003000300048
:104920003000300030023002E001000000000000E2
:104930000000000000000000000000000000000077
:10494000000008028E030C030C030C030C030C0381
:104950000C030C030C039C0778010000000000000E
:104960000000000000000000000000000000000047
:10497000000000001E070C02080108011801900049
:10498000B000B000600060002000000000000000E7
:104990000000000000000000000000000000000017
:1049A00000000000F70E6204460464026402EC0298
:1049B0009C01980198019801080000000000000087
:1049C00000000000000000000000000000000000E7
:1049D00000000000BC0718011001B000600060007A
:1049E000E0009000080108039E070000000000009E
:1049F00000000000000000000000000000000000B7
:104A0000000000009E0708010801080190009000C6
:104A1000B0006000600060002000200024001C0046
:104A20000000000000000000000000000000000086
:104A300000000000FC018401C4004400600020006C
:104A40003000180208020C03FC0100000000000006
:104A500000000000000380008000800080008000D3
:104A60008000800080004000200040008000800026
:104A70008000800080008000800080000003000033
:104A80004000400040004000400040004000400026
:104A90004000400040004000400040004000400016
:104AA0004000400040004000400040004000400006
:104AB000000000000C00100010001000100010009A
:104AC0001000100010002000400020001000100016
:104AD0001000100010001000100010000C0000006A
:104AE00000001C002204C20480030000000000003B
:104AF00000000000000000000000000000000000B6
:104B000000000000000000000000000000000000A5
:104B10000000000000000000000000000000000095
:104B20000000000000000000000000000000000085
:104B30000000000000000000000000000000000075
:104B40000000000000000000000000000000000065
:104B500000000000000000000000C001C001C00112
:104B6000C001C001C001C001800080008000800041
:104B70008000800080000000000000000000800134
:104B8000C003C0038001000000000000000000001E
:104B9000000000000000E01CE01CF01E700E380752
:104BA000180308018400000000000000000000005D
:104BB00000000000000000000000000000000000F5
:104BC00000000000000000000000000000000000E5
:104BD0000000000000000000000000002010201075
:104BE000201020102010FE7FFE7F100810081008F3
:104BF0001008100810081008FE7FFE7F0804080443
:104C00000804080408040000000000000000000080
:104C1000000000000000000000010001C007601952
:104C2000103118311839183938017001E001C0030A
:104C30008007000F001D003900311C311C310C3180
:104C40000C11180DE0070001000100010000000038
:104C50000000000000000000000000001C103618DA
:104C60006308630C63046304630263026301361D1B
:104C70009C378022806340634063206320633063FD
:104C800010221836081C0000000000000000000080
:104C9000000000000000000000000000F00098018B
:104CA0008C018C018C018C018C00CC007800183EAA
:104CB0001C083608320863046304C304C303834337
:104CC00006438E26781C0000000000000000000053
:104CD0000000000000001C003C003C0030003000E0
:104CE00010000C00060000000000000000000000A2
:104CF00000000000000000000000000000000000B4
:104D000000000000000000000000000000000000A3
:104D10000000000000000040002000100008000C0F
:104D200000040006000300030003800180018001ED
:104D300080018001800180018001000300030003E5
:104D400000060006000C00080010002000400000D3
:104D50000000000000000200040008001000300005
:104D600020006000C000C000C00080018001800100
:104D700080018001800180018001C000C000C0006E
:104D80006000600030001000080004000200000015
:104D90000000000000000000000000000000000013
:104DA00000018003800300011C713C79783DC0073D
:104DB0000001C007783D3C791C710001800380032D
:104DC0008001000000000000000000000000000062
:104DD00000000000000000000000000000000000D3
:104DE00000000001000100010001000100010001BC
:104DF000FC7F000100010001000100010001000131
:104E000000000000000000000000000000000000A2
:104E10000000000000000000000000000000000092
:104E20000000000000000000000000000000000082
:104E30000000000000000000000000000000000072
:104E40001C003C003C003000300010000C0006004C
:104E50000000000000000000000000000000000052
:104E60000000000000000000000000000000000042
:104E7000FE7F0000000000000000000000000000B5
:104E80000000000000000000000000000000000022
:104E90000000000000000000000000000000000012
:104EA0000000000000000000000000000000000002
:104EB00000000000000000000000000000001800DA
:104EC0003C003C0018000000000000000000000052
:104ED00000000000000000400060002000300010D2
:104EE00000180008000C0004000600020003000186
:104EF00080018000C00040006000200030001000F1
:104F0000180008000C000400060002000000000069
:104F1000000000000000000000000000C007600C5E
:104F200030181830183018200C600C600C600C60C1
:104F30000C600C600C600C600C601820183018308D
:104F40003018600CC00700000000000000000000E6
:104F500000000000000000000000000000018001CF
:104F6000F8018001800180018001800180018001C1
:104F70008001800180018001800180018001800129
:104F80008001C003F81F00000000000000000000C6
:104F9000000000000000000000000000E007101CFE
:104FA0000818043004300C300C30003000180008B1
:104FB0000004000200018000400020201020082092
:104FC0000430FC1FFC1F0000000000000000000077
:104FD000000000000000000000000000E003180EC8
:104FE0000C0C0C180C180C180018000C0006C00350
:104FF000000E00180010003000300C300C300C1087
:105000000C18180CE0030000000000000000000075
:10501000000000000000000000000000000C000E76
:10502000000E000F800E800E400E600E200E100E3F
:10503000100E080E040E040EFE7F000E000E000E71
:10504000000E000E000EC07F0000000000000000F7
:10505000000000000000000000000000F03FF03FF2
:1050600010001000100008000800C807280C1818CD
:10507000081000300030003000300C300C300418C4
:105080000418080CF00300000000000000000000FD
:10509000000000000000000000000000800FC010B1
:1050A000203010301800180008000C008C0F6C180D
:1050B0003C301C600C600C600C600C6018601820A8
:1050C00030306018C0070000000000000000000041
:1050D000000000000000000000000000F83FF83F62
:1050E0001C100C0804080404000400020002000163
:1050F00000010001800080008000C000C000C000EE
:10510000C000C000C000000000000000000000005F
:10511000000000000000000000000000E007300C6C
:1051200018180C300C300C301C3038187008E007A0
:10513000B007180E0C1C0638063006300630063054
:105140000C18180CE0030000000000000000000034
:10515000000000000000000000000000E003180450
:105160000C080C18061006300630063006300638DB
:105170000C3C1836F03100300018001800180C0CE8
:105180000C060C03F001000000000000000000000D
:10519000000000000000000000000000000000000F
:1051A000000000000000000000008001C003C003F8
:1051B00080010000000000000000000000008001ED
:1051C000C003C003800100000000000000000000D8
:1051D00000000000000000000000000000000000CF
:1051E00000000000000000000000C000C00000003F
:1051F00000000000000000000000000000000000AF
:105200000000C000C000800080004000400000009E
:105210000000000000000000000000200010000856
:105220000004000600038001C00060003000180088
:105230000C00180030006000C00080010003000670
:105240000004000800100020000000000000000022
:10525000000000000000000000000000000000004E
:1052600000000000000000000000FE7F00000000C1
:10527000000000000000FE7F0000000000000000B1
:10528000000000000000000000000000000000001E
:1052900000000000000000000000040008001000F2
:1052A00020006000C000800100030006000C001810
:1052B00000300018000C000600038001C0006000F0
:1052C00020001000080004000000000000000000A2
:1052D00000000000000000000000C0073018083087
:1052E00008600C601C601C601C600030001C000624
:1052F000000180008000800080000000000080012C
:10530000C003C00380010000000000000000000096
:10531000000000000000000000000000C00760184E
:10532000103018200C2F8C4D864CC64CC64C664C49
:1053300066446644662666266615CC1C0C4008202A
:1053400018303018C0070000000000000000000006
:10535000000000000000000000000001C001C001CA
:10536000C001400160032003200320033006100623
:1053700010061006F80F080C080C080C0C0C04188A
:10538000041806181F7C0000000000000000000048
:10539000000000000000000000000000FE07181CD4
:1053A000183818301830183018301818180CF8073A
:1053B00018181830182018601860186018601860E5
:1053C00018301818FE0F0000000000000000000058
:1053D000000000000000000000000000C02760384E
:1053E000103018200C400C40040006000600060097
:1053F000060006000600060006000C400C400C20CB
:1054000018303018C0070000000000000000000045
:10541000000000000000000000000000FE03180E65
:105420001818183018301830186018601860186094
:10543000186018601860186018601830183018105C
:105440001818180EFE030000000000000000000005
:10545000000000000000000000000000FE3F1830C7
:10546000182018601840180018081808180CF80FB1
:10547000180C1808180818001800180018401840D0
:1054800018201830FE3F000000000000000000005F
:10549000000000000000000000000000FE7F187007
:1054A000184018C018801800181018101818F81F85
:1054B00018181810181018001800180018001800F4
:1054C000180018007E00000000000000000000002E
:1054D000000000000000000000000000C013701C6D
:1054E000101018100C200C20040006000600060006
:1054F0000600060006FC063006300C300C30183072
:1055000018303008C0070000000000000000000054
:105510000000000000000000000000003F7E0C18AA
:105520000C180C180C180C180C180C180C180C185B
:10553000FC1F0C180C180C180C180C180C180C1854
:105540000C180C183F7E0000000000000000000056
:10555000000000000000000000000000F81F8001B3
:105560008001800180018001800180018001800133
:105570008001800180018001800180018001800123
:1055800080018001F81F0000000000000000000002
:10559000000000000000000000000000E07F0006A6
:1055A00000060006000600060006000600060006CB
:1055B00000060006000600060006000600060006BB
:1055C00000060006000600060E060E038E01FC0013
:1055D0000000000000000000000000007E7C1818A1
:1055E0001808180418061802180198019801D80123
:1055F000B803380318071806180E180C181C1818CA
:10560000183018307EFC0000000000000000000090
:105610000000000000000000000000007E001800F4
:1056200018001800180018001800180018001800BA
:10563000180018001800180018001800184018402A
:1056400018201830FE3F000000000000000000009D
:105650000000000000000000000000001FF81C38DF
:105660001C381C381C3C34343434343434367432F2
:105670006432643264326431C431C431C431C43000
:10568000C43084309FFC00000000000000000000D7
:105690000000000000000000000000001F7C1C1043
:1056A0003C103410341074106410E410C410C41191
:1056B00084118413041304170416041E041C041C10
:1056C000041C04181F180000000000000000000067
:1056D000000000000000000000000000C003300CCB
:1056E000181808100C300C30066006600660066062
:1056F000066006600660066006600C200C3008102C
:105700001818300CC003000000000000000000006A
:10571000000000000000000000000000FE0F18184C
:105720001830186018601860186018601830181861
:10573000F80F1800180018001800180018001800BA
:10574000180018007E0000000000000000000000AB
:10575000000000000000000000000000C003300C4A
:1057600018180C100C300C200660066006600660ED
:1057700006600660066006600660E4612C331C3239
:105780001816300EC007004C007C003800000000E6
:10579000000000000000000000000000FE07181CD0
:1057A000183818301830183018301818180CF80736
:1057B00098031803180718061806180E180C180C6A
:1057C000181C18187E78000000000000000000007F
:1057D000000000000000000000000000E02730385A
:1057E00018300C200C200C000C0018007800E0038E
:1057F000800F001E003800700060046004600860C4
:1058000018303818C80F0000000000000000000029
:10581000000000000000000000000000FC3F8C21A0
:105820008461824182418001800180018001800188
:105830008001800180018001800180018001800160
:1058400080018001E007000000000000000000006F
:105850000000000000000000000000003F7C0C1071
:105860000C100C100C100C100C100C100C100C1058
:105870000C100C100C100C100C100C100C100C1048
:1058800008083804E00300000000000000000000E9
:105890000000000000000000000000003EF818209A
:1058A00018201820301030103010301060086008B8
:1058B0006008E00CC004C004C004800380038003BF
:1058C0008003000100010000000000000000000053
:1058D000000000000000000000000000DFF386610F
:1058E000862186218C210C218C238C138C138C1304
:1058F0004C1358125816580E380E380E380E300CFD
:10590000100410041004000000000000000000005B
:105910000000000000000000000000007E3E1808AB
:1059200038083004300470026002E001C001C00198
:10593000800180034003400720062006100C100C55
:10594000081808183E7C000000000000000000005D
:105950000000000000000000000000007E7C1C1021
:10596000181018083008300C700460046002C0027F
:10597000C002C0018001800180018001800180019E
:1059800080018001E007000000000000000000002E
:10599000000000000000000000000000F83F1818A0
:1059A0000818040C040E00060007000380038001A1
:1059B000C001C000E00060007000300038201820F6
:1059C0001C100C18FE1F000000000000000000006A
:1059D000000000000000C03F4000400040004000C8
:1059E00040004000400040004000400040004000B7
:1059F00040004000400040004000400040004000A7
:105A000040004000400040004000C03F0000000057
:105A1000000000000000000000000800180018004E
:105A2000100030002000600060004000C0008000D6
:105A3000800180010001000300020006000600044E
:105A4000000C0008001800180010003000200000B2
:105A5000000000000000FC0300020002000200023F
:105A60000002000200020002000200020002000226
:105A70000002000200020002000200020002000216
:105A800000020002000200020002FC03000000000D
:105A90000000000000008007C00620081010000071
:105AA00000000000000000000000000000000000F6
:105AB00000000000000000000000000000000000E6
:105AC00000000000000000000000000000000000D6
:105AD00000000000000000000000000000000000C6
